{
  "contractName": "Marketplace",
  "abi": [
    {
      "constant": true,
      "inputs": [],
      "name": "name",
      "outputs": [
        {
          "name": "",
          "type": "string"
        }
      ],
      "payable": false,
      "stateMutability": "view",
      "type": "function",
      "signature": "0x06fdde03"
    },
    {
      "constant": true,
      "inputs": [
        {
          "name": "",
          "type": "uint256"
        }
      ],
      "name": "vozila",
      "outputs": [
        {
          "name": "id",
          "type": "uint256"
        },
        {
          "name": "ime",
          "type": "string"
        },
        {
          "name": "cena",
          "type": "uint256"
        },
        {
          "name": "lastnik",
          "type": "address"
        },
        {
          "name": "na_voljo",
          "type": "bool"
        },
        {
          "name": "lokacija",
          "type": "string"
        },
        {
          "name": "sposojevalec",
          "type": "address"
        }
      ],
      "payable": false,
      "stateMutability": "view",
      "type": "function",
      "signature": "0x7f412101"
    },
    {
      "constant": true,
      "inputs": [],
      "name": "stevilo_vozil",
      "outputs": [
        {
          "name": "",
          "type": "uint256"
        }
      ],
      "payable": false,
      "stateMutability": "view",
      "type": "function",
      "signature": "0xb7d40813"
    },
    {
      "inputs": [],
      "payable": false,
      "stateMutability": "nonpayable",
      "type": "constructor",
      "signature": "constructor"
    },
    {
      "anonymous": false,
      "inputs": [
        {
          "indexed": false,
          "name": "id",
          "type": "uint256"
        },
        {
          "indexed": false,
          "name": "ime",
          "type": "string"
        },
        {
          "indexed": false,
          "name": "cena",
          "type": "uint256"
        },
        {
          "indexed": false,
          "name": "lastnik",
          "type": "address"
        },
        {
          "indexed": false,
          "name": "na_voljo",
          "type": "bool"
        },
        {
          "indexed": false,
          "name": "lokacija",
          "type": "string"
        },
        {
          "indexed": false,
          "name": "sposojevalec",
          "type": "address"
        }
      ],
      "name": "DodanoVozilo",
      "type": "event",
      "signature": "0x3600f53affc49b906c9e4939faa3858fdd686cfa4b62badbcc83c95e5fb0c717"
    },
    {
      "anonymous": false,
      "inputs": [
        {
          "indexed": false,
          "name": "id",
          "type": "uint256"
        },
        {
          "indexed": false,
          "name": "ime",
          "type": "string"
        },
        {
          "indexed": false,
          "name": "cena",
          "type": "uint256"
        },
        {
          "indexed": false,
          "name": "lastnik",
          "type": "address"
        },
        {
          "indexed": false,
          "name": "na_voljo",
          "type": "bool"
        },
        {
          "indexed": false,
          "name": "lokacija",
          "type": "string"
        },
        {
          "indexed": false,
          "name": "sposojevalec",
          "type": "address"
        }
      ],
      "name": "VoziloSposojeno",
      "type": "event",
      "signature": "0x1f9ebacd262b0d09a210f558adc347899f425956dfc9b999eb82acb963e2e406"
    },
    {
      "anonymous": false,
      "inputs": [
        {
          "indexed": false,
          "name": "id",
          "type": "uint256"
        },
        {
          "indexed": false,
          "name": "ime",
          "type": "string"
        },
        {
          "indexed": false,
          "name": "cena",
          "type": "uint256"
        },
        {
          "indexed": false,
          "name": "lastnik",
          "type": "address"
        },
        {
          "indexed": false,
          "name": "na_voljo",
          "type": "bool"
        },
        {
          "indexed": false,
          "name": "lokacija",
          "type": "string"
        },
        {
          "indexed": false,
          "name": "sposojevalec",
          "type": "address"
        }
      ],
      "name": "VoziloVrnjeno",
      "type": "event",
      "signature": "0x5000a9125426dd5c3f8a107482b2f14d172fe99992e789d83514aeee9c118aa0"
    },
    {
      "constant": false,
      "inputs": [
        {
          "name": "ime",
          "type": "string"
        },
        {
          "name": "cena_izposoje",
          "type": "uint256"
        },
        {
          "name": "lokacija",
          "type": "string"
        }
      ],
      "name": "dodaj_vozilo",
      "outputs": [],
      "payable": false,
      "stateMutability": "nonpayable",
      "type": "function",
      "signature": "0xd5d7dc4e"
    },
    {
      "constant": false,
      "inputs": [
        {
          "name": "_id",
          "type": "uint256"
        },
        {
          "name": "lokacija",
          "type": "string"
        }
      ],
      "name": "vrni_vozilo",
      "outputs": [],
      "payable": false,
      "stateMutability": "nonpayable",
      "type": "function",
      "signature": "0xef565e0b"
    },
    {
      "constant": false,
      "inputs": [
        {
          "name": "_id",
          "type": "uint256"
        }
      ],
      "name": "sposodi_vozilo",
      "outputs": [],
      "payable": true,
      "stateMutability": "payable",
      "type": "function",
      "signature": "0x6990ef58"
    }
  ],
  "bytecode": "0x608060405260006001553480156200001657600080fd5b506040805190810160405280601481526020017f536861726564204d6f62696c697479204441505000000000000000000000000081525060009080519060200190620000649291906200006b565b506200011a565b828054600181600116156101000203166002900490600052602060002090601f016020900481019282601f10620000ae57805160ff1916838001178555620000df565b82800160010185558215620000df579182015b82811115620000de578251825591602001919060010190620000c1565b5b509050620000ee9190620000f2565b5090565b6200011791905b8082111562000113576000816000905550600101620000f9565b5090565b90565b611875806200012a6000396000f3fe608060405260043610610078576000357c0100000000000000000000000000000000000000000000000000000000900463ffffffff16806306fdde031461007d5780636990ef581461010d5780637f4121011461013b578063b7d40813146102da578063d5d7dc4e14610305578063ef565e0b1461046e575b600080fd5b34801561008957600080fd5b50610092610540565b6040518080602001828103825283818151815260200191508051906020019080838360005b838110156100d25780820151818401526020810190506100b7565b50505050905090810190601f1680156100ff5780820380516001836020036101000a031916815260200191505b509250505060405180910390f35b6101396004803603602081101561012357600080fd5b81019080803590602001909291905050506105de565b005b34801561014757600080fd5b506101746004803603602081101561015e57600080fd5b8101908080359060200190929190505050610c3c565b60405180888152602001806020018781526020018673ffffffffffffffffffffffffffffffffffffffff1673ffffffffffffffffffffffffffffffffffffffff16815260200185151515158152602001806020018473ffffffffffffffffffffffffffffffffffffffff1673ffffffffffffffffffffffffffffffffffffffff168152602001838103835289818151815260200191508051906020019080838360005b83811015610232578082015181840152602081019050610217565b50505050905090810190601f16801561025f5780820380516001836020036101000a031916815260200191505b50838103825285818151815260200191508051906020019080838360005b8381101561029857808201518184015260208101905061027d565b50505050905090810190601f1680156102c55780820380516001836020036101000a031916815260200191505b50995050505050505050505060405180910390f35b3480156102e657600080fd5b506102ef610dfb565b6040518082815260200191505060405180910390f35b34801561031157600080fd5b5061046c6004803603606081101561032857600080fd5b810190808035906020019064010000000081111561034557600080fd5b82018360208201111561035757600080fd5b8035906020019184600183028401116401000000008311171561037957600080fd5b91908080601f016020809104026020016040519081016040528093929190818152602001838380828437600081840152601f19601f82011690508083019250505050505050919291929080359060200190929190803590602001906401000000008111156103e657600080fd5b8201836020820111156103f857600080fd5b8035906020019184600183028401116401000000008311171561041a57600080fd5b91908080601f016020809104026020016040519081016040528093929190818152602001838380828437600081840152601f19601f820116905080830192505050505050509192919290505050610e01565b005b34801561047a57600080fd5b5061053e6004803603604081101561049157600080fd5b8101908080359060200190929190803590602001906401000000008111156104b857600080fd5b8201836020820111156104ca57600080fd5b803590602001918460018302840111640100000000831117156104ec57600080fd5b91908080601f016020809104026020016040519081016040528093929190818152602001838380828437600081840152601f19601f820116905080830192505050505050509192919290505050611146565b005b60008054600181600116156101000203166002900480601f0160208091040260200160405190810160405280929190818152602001828054600181600116156101000203166002900480156105d65780601f106105ab576101008083540402835291602001916105d6565b820191906000526020600020905b8154815290600101906020018083116105b957829003601f168201915b505050505081565b6105e6611738565b6002600083815260200190815260200160002060e0604051908101604052908160008201548152602001600182018054600181600116156101000203166002900480601f0160208091040260200160405190810160405280929190818152602001828054600181600116156101000203166002900480156106a85780601f1061067d576101008083540402835291602001916106a8565b820191906000526020600020905b81548152906001019060200180831161068b57829003601f168201915b50505050508152602001600282015481526020016003820160009054906101000a900473ffffffffffffffffffffffffffffffffffffffff1673ffffffffffffffffffffffffffffffffffffffff1673ffffffffffffffffffffffffffffffffffffffff1681526020016003820160149054906101000a900460ff16151515158152602001600482018054600181600116156101000203166002900480601f0160208091040260200160405190810160405280929190818152602001828054600181600116156101000203166002900480156107c55780601f1061079a576101008083540402835291602001916107c5565b820191906000526020600020905b8154815290600101906020018083116107a857829003601f168201915b505050505081526020016005820160009054906101000a900473ffffffffffffffffffffffffffffffffffffffff1673ffffffffffffffffffffffffffffffffffffffff1673ffffffffffffffffffffffffffffffffffffffff16815250509050600081606001519050600082600001511180156108495750600154826000015111155b151561085457600080fd5b8160400151341015151561086757600080fd5b8160800151151561087757600080fd5b3373ffffffffffffffffffffffffffffffffffffffff168173ffffffffffffffffffffffffffffffffffffffff16141515156108b257600080fd5b338260c0019073ffffffffffffffffffffffffffffffffffffffff16908173ffffffffffffffffffffffffffffffffffffffff168152505060008260800190151590811515815250506040805190810160405280600a81526020017f56207472616e7a697475000000000000000000000000000000000000000000008152508260a0018190525081600260008581526020019081526020016000206000820151816000015560208201518160010190805190602001906109739291906117a4565b506040820151816002015560608201518160030160006101000a81548173ffffffffffffffffffffffffffffffffffffffff021916908373ffffffffffffffffffffffffffffffffffffffff16021790555060808201518160030160146101000a81548160ff02191690831515021790555060a0820151816004019080519060200190610a019291906117a4565b5060c08201518160050160006101000a81548173ffffffffffffffffffffffffffffffffffffffff021916908373ffffffffffffffffffffffffffffffffffffffff1602179055509050508073ffffffffffffffffffffffffffffffffffffffff166108fc349081150290604051600060405180830381858888f19350505050158015610a92573d6000803e3d6000fd5b507f1f9ebacd262b0d09a210f558adc347899f425956dfc9b999eb82acb963e2e40660015483602001518460400151856060015160008760a001518860c0015160405180888152602001806020018781526020018673ffffffffffffffffffffffffffffffffffffffff1673ffffffffffffffffffffffffffffffffffffffff16815260200185151515158152602001806020018473ffffffffffffffffffffffffffffffffffffffff1673ffffffffffffffffffffffffffffffffffffffff168152602001838103835289818151815260200191508051906020019080838360005b83811015610b90578082015181840152602081019050610b75565b50505050905090810190601f168015610bbd5780820380516001836020036101000a031916815260200191505b50838103825285818151815260200191508051906020019080838360005b83811015610bf6578082015181840152602081019050610bdb565b50505050905090810190601f168015610c235780820380516001836020036101000a031916815260200191505b50995050505050505050505060405180910390a1505050565b6002602052806000526040600020600091509050806000015490806001018054600181600116156101000203166002900480601f016020809104026020016040519081016040528092919081815260200182805460018160011615610100020316600290048015610cee5780601f10610cc357610100808354040283529160200191610cee565b820191906000526020600020905b815481529060010190602001808311610cd157829003601f168201915b5050505050908060020154908060030160009054906101000a900473ffffffffffffffffffffffffffffffffffffffff16908060030160149054906101000a900460ff1690806004018054600181600116156101000203166002900480601f016020809104026020016040519081016040528092919081815260200182805460018160011615610100020316600290048015610dcb5780601f10610da057610100808354040283529160200191610dcb565b820191906000526020600020905b815481529060010190602001808311610dae57829003601f168201915b5050505050908060050160009054906101000a900473ffffffffffffffffffffffffffffffffffffffff16905087565b60015481565b60008351111515610e1157600080fd5b600082111515610e2057600080fd5b600160008154809291906001019190505550600080905060e06040519081016040528060015481526020018581526020018481526020013373ffffffffffffffffffffffffffffffffffffffff1681526020016001151581526020018381526020018273ffffffffffffffffffffffffffffffffffffffff16815250600260006001548152602001908152602001600020600082015181600001556020820151816001019080519060200190610ed79291906117a4565b506040820151816002015560608201518160030160006101000a81548173ffffffffffffffffffffffffffffffffffffffff021916908373ffffffffffffffffffffffffffffffffffffffff16021790555060808201518160030160146101000a81548160ff02191690831515021790555060a0820151816004019080519060200190610f659291906117a4565b5060c08201518160050160006101000a81548173ffffffffffffffffffffffffffffffffffffffff021916908373ffffffffffffffffffffffffffffffffffffffff1602179055509050507f3600f53affc49b906c9e4939faa3858fdd686cfa4b62badbcc83c95e5fb0c7176001548585336001878760405180888152602001806020018781526020018673ffffffffffffffffffffffffffffffffffffffff1673ffffffffffffffffffffffffffffffffffffffff16815260200185151515158152602001806020018473ffffffffffffffffffffffffffffffffffffffff1673ffffffffffffffffffffffffffffffffffffffff168152602001838103835289818151815260200191508051906020019080838360005b8381101561109957808201518184015260208101905061107e565b50505050905090810190601f1680156110c65780820380516001836020036101000a031916815260200191505b50838103825285818151815260200191508051906020019080838360005b838110156110ff5780820151818401526020810190506110e4565b50505050905090810190601f16801561112c5780820380516001836020036101000a031916815260200191505b50995050505050505050505060405180910390a150505050565b61114e611738565b6002600084815260200190815260200160002060e0604051908101604052908160008201548152602001600182018054600181600116156101000203166002900480601f0160208091040260200160405190810160405280929190818152602001828054600181600116156101000203166002900480156112105780601f106111e557610100808354040283529160200191611210565b820191906000526020600020905b8154815290600101906020018083116111f357829003601f168201915b50505050508152602001600282015481526020016003820160009054906101000a900473ffffffffffffffffffffffffffffffffffffffff1673ffffffffffffffffffffffffffffffffffffffff1673ffffffffffffffffffffffffffffffffffffffff1681526020016003820160149054906101000a900460ff16151515158152602001600482018054600181600116156101000203166002900480601f01602080910402602001604051908101604052809291908181526020018280546001816001161561010002031660029004801561132d5780601f106113025761010080835404028352916020019161132d565b820191906000526020600020905b81548152906001019060200180831161131057829003601f168201915b505050505081526020016005820160009054906101000a900473ffffffffffffffffffffffffffffffffffffffff1673ffffffffffffffffffffffffffffffffffffffff1673ffffffffffffffffffffffffffffffffffffffff16815250509050806060015173ffffffffffffffffffffffffffffffffffffffff168160c0015173ffffffffffffffffffffffffffffffffffffffff16141515156113d157600080fd5b600073ffffffffffffffffffffffffffffffffffffffff168160c0015173ffffffffffffffffffffffffffffffffffffffff161415151561141157600080fd5b600015158160800151151514151561142857600080fd5b60008160c0019073ffffffffffffffffffffffffffffffffffffffff16908173ffffffffffffffffffffffffffffffffffffffff1681525050818160a00181905250600181608001901515908115158152505080600260008581526020019081526020016000206000820151816000015560208201518160010190805190602001906114b59291906117a4565b506040820151816002015560608201518160030160006101000a81548173ffffffffffffffffffffffffffffffffffffffff021916908373ffffffffffffffffffffffffffffffffffffffff16021790555060808201518160030160146101000a81548160ff02191690831515021790555060a08201518160040190805190602001906115439291906117a4565b5060c08201518160050160006101000a81548173ffffffffffffffffffffffffffffffffffffffff021916908373ffffffffffffffffffffffffffffffffffffffff1602179055509050507f5000a9125426dd5c3f8a107482b2f14d172fe99992e789d83514aeee9c118aa08382602001518360400151846060015185608001518660a001518760c0015160405180888152602001806020018781526020018673ffffffffffffffffffffffffffffffffffffffff1673ffffffffffffffffffffffffffffffffffffffff16815260200185151515158152602001806020018473ffffffffffffffffffffffffffffffffffffffff1673ffffffffffffffffffffffffffffffffffffffff168152602001838103835289818151815260200191508051906020019080838360005b8381101561168c578082015181840152602081019050611671565b50505050905090810190601f1680156116b95780820380516001836020036101000a031916815260200191505b50838103825285818151815260200191508051906020019080838360005b838110156116f25780820151818401526020810190506116d7565b50505050905090810190601f16801561171f5780820380516001836020036101000a031916815260200191505b50995050505050505050505060405180910390a1505050565b60e060405190810160405280600081526020016060815260200160008152602001600073ffffffffffffffffffffffffffffffffffffffff16815260200160001515815260200160608152602001600073ffffffffffffffffffffffffffffffffffffffff1681525090565b828054600181600116156101000203166002900490600052602060002090601f016020900481019282601f106117e557805160ff1916838001178555611813565b82800160010185558215611813579182015b828111156118125782518255916020019190600101906117f7565b5b5090506118209190611824565b5090565b61184691905b8082111561184257600081600090555060010161182a565b5090565b9056fea165627a7a72305820a8750cc51dae164da5ee33cb357f6a388cdd6b583420cefcd789606fb971e30c0029",
  "source": "pragma solidity ^0.5.0;\r\n\r\ncontract Marketplace {\r\n    string public name;\r\n    uint public stevilo_vozil = 0;\r\n    mapping(uint => Vozilo) public vozila;\r\n\r\n    constructor() public{\r\n        name = \"Shared Mobility DAPP\";\r\n    }\r\n    struct Vozilo {\r\n        uint id;\r\n        string ime;\r\n        uint cena;\r\n        address payable lastnik;\r\n        bool na_voljo;\r\n        string lokacija;\r\n        address payable sposojevalec;\r\n    }\r\n\r\n    event DodanoVozilo(\r\n    uint id,\r\n    string ime,\r\n    uint cena,\r\n    address payable lastnik,\r\n    bool na_voljo,\r\n    string lokacija,\r\n    address payable sposojevalec\r\n    );\r\n\r\n    function dodaj_vozilo(string memory ime, uint cena_izposoje, string memory lokacija) public {\r\n        require(bytes(ime).length > 0);\r\n        require(cena_izposoje > 0);\r\n        stevilo_vozil++;\r\n        address payable null_sender = address(0);\r\n        vozila[stevilo_vozil] = Vozilo(stevilo_vozil, ime, cena_izposoje, msg.sender, true, lokacija, null_sender );\r\n        emit DodanoVozilo(stevilo_vozil, ime, cena_izposoje, msg.sender, true, lokacija, null_sender);\r\n        \r\n    }\r\n    \r\n    event VoziloSposojeno(\r\n        uint id,\r\n        string ime,\r\n        uint cena,\r\n        address payable lastnik,\r\n        bool na_voljo,\r\n        string lokacija,\r\n        address payable sposojevalec\r\n    );\r\n\r\n    event VoziloVrnjeno(\r\n        uint id,\r\n        string ime,\r\n        uint cena,\r\n        address payable lastnik,\r\n        bool na_voljo,\r\n        string lokacija,\r\n        address payable sposojevalec\r\n    );\r\n\r\n    function vrni_vozilo(uint _id, string memory lokacija) public{\r\n        Vozilo memory _vozilo = vozila[_id];\r\n        require(_vozilo.sposojevalec != _vozilo.lastnik);\r\n        require(_vozilo.sposojevalec != address(0));\r\n        require(_vozilo.na_voljo == false);\r\n        _vozilo.sposojevalec = address(0);\r\n        _vozilo.lokacija = lokacija;\r\n        _vozilo.na_voljo = true;\r\n        vozila[_id] = _vozilo;\r\n        emit VoziloVrnjeno(_id, _vozilo.ime, _vozilo.cena, _vozilo.lastnik, _vozilo.na_voljo, _vozilo.lokacija, _vozilo.sposojevalec);\r\n    }\r\n\r\n\r\n    function sposodi_vozilo(uint _id) public payable{\r\n    // Fetch the product\r\n    Vozilo memory _vozilo = vozila[_id];\r\n    // Fetch the owner\r\n    address payable _prodajalec = _vozilo.lastnik;\r\n    // Make sure the product has a valid id\r\n    require(_vozilo.id > 0 && _vozilo.id <= stevilo_vozil);\r\n    // Require that there is enough Ether in the transaction\r\n    require(msg.value >= _vozilo.cena);\r\n    // Require that the product has not been purchased already\r\n    require(_vozilo.na_voljo);\r\n    // Require that the buyer is not the seller\r\n    require(_prodajalec != msg.sender);\r\n    // Transfer ownership to the buyer\r\n    //_vozilo.lastnik = msg.sender;\r\n    _vozilo.sposojevalec = msg.sender;\r\n    // Mark as purchased\r\n    _vozilo.na_voljo = false;\r\n    // Update the product\r\n    //sprememba lokacije na v tranzitu\r\n    _vozilo.lokacija = \"V tranzitu\";\r\n    //_vozilo.lastnik = _vozilo.lastnik;\r\n    vozila[_id] = _vozilo;\r\n    \r\n    // Pay the seller by sending them Ether\r\n    address(_prodajalec).transfer(msg.value);\r\n    // Trigger an event\r\n    emit VoziloSposojeno(stevilo_vozil, _vozilo.ime, _vozilo.cena, _vozilo.lastnik, false, _vozilo.lokacija, _vozilo.sposojevalec);\r\n    }\r\n\r\n}",
  "sourcePath": "C:/Users/Samo/Desktop/VKZV_BLOCKCHAIN/secondTest/marketplace/src/contracts/Marketplace.sol",
  "compiler": {
    "name": "solc",
    "version": "0.5.0+commit.1d4f565a.Emscripten.clang"
  },
  "schemaVersion": "3.0.2",
  "updatedAt": "2022-06-10T17:42:56.354Z",
  "devdoc": {
    "methods": {}
  },
  "userdoc": {
    "methods": {}
  }
}